:100D650042011D000042011F000042011B0000421C
:100D75000125000042013F0000420135000042010B
:100D8500270000420137000042013B0000420141BB
:0C0D950000004201210000420133000078
:03001B00020C4490
:100C4400C0E0C0F0C083C082C0D075D000C000C076
:100C540001C002C003C0079000B4E0FBA3E0FAA304
:100C6400E0F9120A57FFB42408900125E4F0A30424
:100C7400F0EF7003020D32B42D2953A07F90013F91
:100C8400E4F0A304F0C3900142E0940A900141E02F
:100C94009400503EA3E004F07036900141E004F06B
:100CA400020D42120A57FFB42E3653A07F90013F23
:100CB400E4F0A304F0C3900142E09405900141E004
:100CC4009400500EA3E004F07006900141E004F09B
:100CD400806C900135E4F0A304F0900141E480407D
:100CE400EF6424600A900135E07002A3E0604F4392
:100CF400A08090013FE4F0A3F0C3900142E094028D
:100D0400900141E09400500EA3E004F07030900193
:100D140041E004F08028900135E4F0A3F090014113
:100D2400F0A3F09000B575F001120A8280109000D3
:100D3400B4E0FBA3E0FAA3E0F97400120A70900196
:100D440039A3E0F58D90013DA3E0F58BD007D003E6
:100D5400D002D001D000D0D0D082D083D0F0D0E067
:010D6400325C
:03002300020EF2D8
:100EF200C0E0C0F0C083C082C0D075D000C000C0C6
:100F020001C002C003C004C005C006C00730986714
:100F1200E599B4250E900123E4F0A3F090011FF0AF
:100F2200A304F0900123E07002A3E0602190011D70
:100F3200E0FEA3E02429F58274013EF583E599F0F1
:100F420090011EE004F0700690011DE004F0E599A6
:100F5200B4242290011DE4F0A3F07B017A017929E7
:100F62001211B9900123E4F0A304F090011BE4F004
:100F7200A304F0C28EC298D007D006D005D004D008
:100F820003D002D001D000D0D0D082D083D0F0D014
:020F9200E0324B
:100AD600D2AFD2ACD2ABD2A8C288D2A91211F91227
:100AE6001020E4900127F0A3F0900127E0FCA3E09A
:100AF600FDE412099D7BC07AA6799178351208FB30
:100B0600E4FBFA797A78441208FB1209D6C3E49F0B
:100B1600FCE49E90013BF0A3CCF0E4C39FFFE49E6F
:100B2600FE74019400FDE49400FC7808120AB79064
:100B36000137EEF0A3EFF0C28C75891190013D7478
:100B46004CF0A37406F0900139E4F0A3744CF0C2A3
:100B56008E43AF0190011FE07002A3E060737B013A
:100B66007A0079001211B97B017A017929120E2EC9
:100B76007F241212067B017A0079001211A67F25C6
:100B86001212061211DBE4FDFF1211CB7B017A0172
:100B96007929121133E4FDFCFFFE1211569000B4C0
:100BA600E0FBA3E0FAA3E0F97400120A70E49001F6
:100BB60041F0A3F0900135F0A3F0900139A3E0F5E0
:100BC6008D90013DA3E0F58BD28EE490011FF0A33A
:100BD600F0900125E07002A3E07003020B5A900129
:100BE60033E07002A3E0603E90011DE0FEA3E0FF4B
:100BF600C3900122E09F900121E09E4004E4F0A30F
:100C0600F0900121E0FEA3E0FFE4FDFC12115690F6
:100C16000122E004F07006900121E004F0E4900166
:100C260033F0A3F0800E900134E004F070069001DA
:0E0C360033E004F0E4900125F0A3F0020B5A25
:100DA1004300B4010000608200322E2D0000002DAE
:100DB1002E2E2E002D2E2D2E002D2E2E00002E003B
:100DC1000000002E2E2D2E002D2D2E00002E2E2E59
:100DD1002E002E2E0000002E2D2D2D002D2E2D004B
:100DE100002E2D2E2E002D2D0000002D2E00000096
:100DF1002D2D2D00002E2D2D2E002D2D2E2D002ED2
:100E01002D2E00002E2E2E00002D000000002E2E73
:100E11002D00002E2E2E2D002E2D2D00002D2E2EDC
:0C0E21002D002D2E2D2D002D2D2E2E002D
:0810AD008F0E8E0D8D0C8C0BD3
:1010B500E4F50FF510F582F583AF82AE83EE339537
:1010C500E0FDFCAB0EAA0DA90CA80BD3120AA64095
:0410D50003A380E50C
:0110D90022F4
:1010DA00AD07AC06EC12099D7B587A3979B478BC15
:1010EA001208077B6F7A127983783C1208FBE4FBBB
:0D10FA00FAF9783F1208071209D60210AD6E
:10107600AD07AC06EC12099DE4FBFA797A784412C6
:1010860008FB7B587A3979B478BC1208077B6F7AEB
:10109600127983783C1208FBE4FBFAF9783F1208D0
:0710A600071209D60210AD8C
:06110700C200C2017F30AE
:10110D00D2A0A20092EDA20192EF8F80C2A07F32F9
:10111D007E007D007C001210ADD2A07FF47E017D9B
:06112D00007C000210AD81
:07120E00D200C20102110D24
:101133008B088A09890AAB08AA09A90A120A57FF68
:10114300601012120E7401250AF50AE43509F50937
:0311530080E42213
:1011CB00ED75F040A42F4480FFC200C20102110D47
:10117500EFC454F02420FFED75F008A42FFFEB25F4
:0C118500E025E02FFFC200C20102110DA6
:10119100EF25E025E02408FFED25E02F2BFFC2001D
:0511A100C20102110D66
:1011DB00C200C2017F0112110D7F047E0602107640
:0E11EB00EF25E024042DFFC200C20102110D09
:10102000D2EBD2EE7F147E001210DA1211077F0588
:101030007E001210DA1211077F017E001210DA1200
:101040001107E4FBFA7D01FC7F01FE121175E4FB40
:10105000FAFDFCFFFE1211911211DB7F017E0012DE
:1010600010DAE4FDFC7F01FE1211EBE4FBFAFDFC5B
:061070007F01FE02119158
:10115600D2A0C2EDC2EFEF75F008A42410FFED2572
:0F116600E025E02FF580C2A07F257E00021076E5
:0D11F900C29FD29ED29C759E84759D0822D7
:081206008F993099FDC2992275
:1011A600120A57FF600C121206740129F9E43AFA82
:0311B60080EE22A6
:1011B900120A57600CE4120A700429F9E43AFA8019
:0211C900EF2213
:100E2E0074FF900143F0A3F0E4A3F0A3F0A3F0A3AA
:100E3E00F0120A57FF7003020EF1D3945B4005EFD8
:100E4E00249F8005120A5724BFFEE434FF90014709
:100E5E00F0A3CEF0E4900145F0A3F0900145E0FE42
:100E6E00A3E0FFA3E0FCA3E090003275F005120AA8
:100E7E00CAEC75F005A42583F583E5822FF582E58E
:100E8E00833EF583E0FF6030900144E004F070068D
:100E9E00900143E004F0900143E0FCA3E02400F550
:100EAE008274003CF583EFF0900146E004F070ABE5
:100EBE00900145E004F080A3900144E004F0700638
:100ECE00900143E004F0900143E0FEA3E02400F51E
:100EDE008274003EF5837420F0740129F9E43AFA25
:030EEE00020E3FB2
:010EF10022DE
:10080000020A42E86480F8E933E83360110460F0DA
:10081000ED33EC337009E8FCE9FDEAFEEBFF22045E
:1008200060DED3EB9FEA9EE99DE8C2E78CF0C2F759
:1008300095F0400CE8CCF8E9CDF9EACEFAEBCFFB25
:10084000120A0D85D0F05804700320D5B3E8047067
:10085000075002B2D5020A4C92D5EC0460F7E4CC02
:10086000C0E0C398F8603B94186008400DD0E0FBEE
:10087000020A24E4FBFAC9FC8028E830E406E4C953
:10088000FBE4CAFCE830E305E4C9CACBFCE8540742
:100890006010F8C3E913F9EA13FAEB13FBEC13FC4D
:1008A000D8F130F52FC3E49CFCEF9BFFEE9AFEEDF0
:1008B00099FDD0E0FBEF4E4D4C701222DB03020A93
:1008C00049EC2CFCEF33FFEE33FEED33FDED30E76A
:1008D000EB020A24EF2BFFEE3AFEED39FDD0E0FBF0
:1008E00050130BBB0003020A4CED13FDEE13FEEF99
:0808F00013FFEC13FC020A24C3
:1008F800020A4CEC5D046005E859047003020A42E0
:10090800120A0D580460F6EC4860F2EC7004FDFE23
:10091800FF22C860DB2481C85009C39860025006D2
:10092800020A499850CAF582E9294B4A7005AB82F8
:10093800020A3875F0007C1A7880C3EF9BEE9AEDB6
:1009480099400DC3EF9BFFEE9AFEED99FDE842F04A
:10095800DC23ACF0D0E0FFD0E0FED0E0FDAB82209D
:10096800E7101BEB60BAEC2CFCEF33FFEE33FEED27
:1009780033FD020A24E803F830E705C0F075F000FB
:10098800EF2FFFEE33FEED33FD40B830E7C280AA0B
:1009980075F020800E75F010800575F0087D007EDA
:1009A800007F003392D530D503120A98EC334010FB
:1009B800EF33FFEE33FEED33FDEC33FCD5F0ED22E3
:0E09C800E5F0247EA2D513CC92E7CDCEFF221F
:1009D600EDD2E7CD33EC3392D524814006E4FFFE19
:1009E600FDFC22FCE4CFCECDCC24E0501174FF8078
:1009F600EDC3CC13CCCD13CDCE13CECF13CF047015
:070A0600F030D5DE020A9872
:100A0D00E9D2E7C933E833F892D5EDD2E7CD33EC2F
:070A1D0033FC5002B2D522A8
:100A2400EC30E7100FBF000C0EBE00080DBD000433
:100A34000BEB6014A2D5EB13FCED92E7FD2274FFDF
:100A4400FCFDFEFF22E480F8A2D574FF13FC7D8038
:030A5400E480EF4C
:03000000020F9458
:0C0F9400787FE4F6D8FD758120020FDBA9
:100A5700BB010689828A83E0225002E722BBFE029D
:090A6700E32289828A83E49322D0
:100A7000BB010689828A83F0225002F722BBFE0165
:020A8000F3225F
:100A8200C5F0F8A3E028F0C5F0F8E58215827002FF
:060A92001583E038F0229C
:0E0A9800C3E49FFFE49EFEE49DFDE49CFC226F
:100AA600EB9FF5F0EA9E42F0E99D42F0E89C45F0A6
:010AB600221D
:100AB700E8600FECC313FCED13FDEE13FEEF13FF1D
:030AC700D8F12241
:0C0ACA00A42582F582E5F03583F5832237
:100FA000020AD6E493A3F8E493A34003F68001F287
:100FB00008DFF48029E493A3F85407240CC8C33352
:100FC000C4540F4420C8834004F456800146F6DF21
:100FD000E4800B0102040810204080900D65E47E3F
:100FE000019360BCA3FF543F30E509541FFEE49316
:100FF000A360010ECF54C025E060A840B8E493A3DD
:10100000FAE493A3F8E493A3C8C582C8CAC583CA07
:10101000F0A3C8C582C8CAC583CADFE9DEE780BEBF
:010E2D0000C4
:00000001FF
